{
  "contractName": "SimpleBank",
  "abi": [
    {
      "inputs": [],
      "stateMutability": "payable",
      "type": "constructor"
    },
    {
      "anonymous": false,
      "inputs": [
        {
          "indexed": true,
          "internalType": "address",
          "name": "accountAddress",
          "type": "address"
        },
        {
          "indexed": false,
          "internalType": "uint256",
          "name": "amount",
          "type": "uint256"
        }
      ],
      "name": "LogDepositMade",
      "type": "event"
    },
    {
      "inputs": [],
      "name": "owner",
      "outputs": [
        {
          "internalType": "address",
          "name": "",
          "type": "address"
        }
      ],
      "stateMutability": "view",
      "type": "function"
    },
    {
      "inputs": [],
      "name": "enroll",
      "outputs": [
        {
          "internalType": "uint256",
          "name": "",
          "type": "uint256"
        }
      ],
      "stateMutability": "nonpayable",
      "type": "function"
    },
    {
      "inputs": [],
      "name": "deposit",
      "outputs": [
        {
          "internalType": "uint256",
          "name": "",
          "type": "uint256"
        }
      ],
      "stateMutability": "payable",
      "type": "function"
    },
    {
      "inputs": [
        {
          "internalType": "uint256",
          "name": "withdrawAmount",
          "type": "uint256"
        }
      ],
      "name": "withdraw",
      "outputs": [
        {
          "internalType": "uint256",
          "name": "remainingBal",
          "type": "uint256"
        }
      ],
      "stateMutability": "nonpayable",
      "type": "function"
    },
    {
      "inputs": [],
      "name": "balance",
      "outputs": [
        {
          "internalType": "uint256",
          "name": "",
          "type": "uint256"
        }
      ],
      "stateMutability": "view",
      "type": "function"
    },
    {
      "inputs": [],
      "name": "depositsBalance",
      "outputs": [
        {
          "internalType": "uint256",
          "name": "",
          "type": "uint256"
        }
      ],
      "stateMutability": "view",
      "type": "function"
    }
  ],
  "bytecode": "0x60806040526801a055690d9db80000341461004f576040517f08c379a000000000000000000000000000000000000000000000000000000000815260040161004690610133565b60405180910390fd5b33600260006101000a81548173ffffffffffffffffffffffffffffffffffffffff021916908373ffffffffffffffffffffffffffffffffffffffff16021790555060008060006101000a81548160ff021916908360ff160217905550610153565b600082825260208201905092915050565b7f333020657468657220696e697469616c2066756e64696e67207265717569726560008201527f6400000000000000000000000000000000000000000000000000000000000000602082015250565b600061011d6021836100b0565b9150610128826100c1565b604082019050919050565b6000602082019050818103600083015261014c81610110565b9050919050565b6106e5806101626000396000f3fe6080604052600436106100555760003560e01c8063138fbe711461005a5780632e1a7d4d146100855780638da5cb5b146100c2578063b69ef8a8146100ed578063d0e30db014610118578063e65f2a7e14610136575b600080fd5b34801561006657600080fd5b5061006f610161565b60405161007c91906104eb565b60405180910390f35b34801561009157600080fd5b506100ac60048036038101906100a79190610537565b610169565b6040516100b991906104eb565b60405180910390f35b3480156100ce57600080fd5b506100d7610296565b6040516100e491906105a5565b60405180910390f35b3480156100f957600080fd5b506101026102bc565b60405161010f91906104eb565b60405180910390f35b610120610303565b60405161012d91906104eb565b60405180910390f35b34801561014257600080fd5b5061014b6103ee565b60405161015891906104eb565b60405180910390f35b600047905090565b6000600160003373ffffffffffffffffffffffffffffffffffffffff1673ffffffffffffffffffffffffffffffffffffffff16815260200190815260200160002054821161024f5781600160003373ffffffffffffffffffffffffffffffffffffffff1673ffffffffffffffffffffffffffffffffffffffff168152602001908152602001600020600082825461020091906105ef565b925050819055503373ffffffffffffffffffffffffffffffffffffffff166108fc839081150290604051600060405180830381858888f1935050505015801561024d573d6000803e3d6000fd5b505b600160003373ffffffffffffffffffffffffffffffffffffffff1673ffffffffffffffffffffffffffffffffffffffff168152602001908152602001600020549050919050565b600260009054906101000a900473ffffffffffffffffffffffffffffffffffffffff1681565b6000600160003373ffffffffffffffffffffffffffffffffffffffff1673ffffffffffffffffffffffffffffffffffffffff16815260200190815260200160002054905090565b600034600160003373ffffffffffffffffffffffffffffffffffffffff1673ffffffffffffffffffffffffffffffffffffffff16815260200190815260200160002060008282546103549190610623565b925050819055503373ffffffffffffffffffffffffffffffffffffffff167fa8126f7572bb1fdeae5b5aa9ec126438b91f658a07873f009d041ae690f3a193346040516103a191906104eb565b60405180910390a2600160003373ffffffffffffffffffffffffffffffffffffffff1673ffffffffffffffffffffffffffffffffffffffff16815260200190815260200160002054905090565b6000600360008054906101000a900460ff1660ff16101561048d5760008081819054906101000a900460ff168092919061042790610686565b91906101000a81548160ff021916908360ff16021790555050678ac7230489e80000600160003373ffffffffffffffffffffffffffffffffffffffff1673ffffffffffffffffffffffffffffffffffffffff168152602001908152602001600020819055505b600160003373ffffffffffffffffffffffffffffffffffffffff1673ffffffffffffffffffffffffffffffffffffffff16815260200190815260200160002054905090565b6000819050919050565b6104e5816104d2565b82525050565b600060208201905061050060008301846104dc565b92915050565b600080fd5b610514816104d2565b811461051f57600080fd5b50565b6000813590506105318161050b565b92915050565b60006020828403121561054d5761054c610506565b5b600061055b84828501610522565b91505092915050565b600073ffffffffffffffffffffffffffffffffffffffff82169050919050565b600061058f82610564565b9050919050565b61059f81610584565b82525050565b60006020820190506105ba6000830184610596565b92915050565b7f4e487b7100000000000000000000000000000000000000000000000000000000600052601160045260246000fd5b60006105fa826104d2565b9150610605836104d2565b925082821015610618576106176105c0565b5b828203905092915050565b600061062e826104d2565b9150610639836104d2565b9250827fffffffffffffffffffffffffffffffffffffffffffffffffffffffffffffffff0382111561066e5761066d6105c0565b5b828201905092915050565b600060ff82169050919050565b600061069182610679565b915060ff82036106a4576106a36105c0565b5b60018201905091905056fea26469706673582212204ab60f1df5902c046b3c87ef63744b331d35fecf7cd06ca5e409675aa30b853d64736f6c634300080f0033",
  "immutableReferences": {},
  "source": "pragma solidity ^0.8.15;\n\ncontract SimpleBank {\n    uint8 private clientCount;\n    mapping (address => uint) private balances;\n    address public owner;\n\n  // Log the event about a deposit being made by an address and its amount\n    event LogDepositMade(address indexed accountAddress, uint amount);\n\n    // Constructor is \"payable\" so it can receive the initial funding of 30, \n    // required to reward the first 3 clients\n    constructor() public payable {\n        require(msg.value == 30 ether, \"30 ether initial funding required\");\n        /* Set the owner to the creator of this contract */\n        owner = msg.sender;\n        clientCount = 0;\n    }\n\n    /// @notice Enroll a customer with the bank, \n    /// giving the first 3 of them 10 ether as reward\n    /// @return The balance of the user after enrolling\n    function enroll() public returns (uint) {\n        if (clientCount < 3) {\n            clientCount++;\n            balances[msg.sender] = 10 ether;\n        }\n        return balances[msg.sender];\n    }\n\n    /// @notice Deposit ether into bank, requires method is \"payable\"\n    /// @return The balance of the user after the deposit is made\n    function deposit() public payable returns (uint) {\n        balances[msg.sender] += msg.value;\n        emit LogDepositMade(msg.sender, msg.value);\n        return balances[msg.sender];\n    }\n\n    \n    function withdraw(uint withdrawAmount) public returns (uint remainingBal) {\n        // Check enough balance available, otherwise just return balance\n        if (withdrawAmount <= balances[msg.sender]) {\n            balances[msg.sender] -= withdrawAmount;\n            payable(msg.sender).transfer(withdrawAmount);\n        }\n        return balances[msg.sender];\n    }\n\n    /// @notice Just reads balance of the account requesting, so \"constant\"\n    /// @return The balance of the user\n    function balance() public view returns (uint) {\n        return balances[msg.sender];\n    }\n\n    /// @return The balance of the Simple Bank contract\n    function depositsBalance() public view returns (uint) {\n        return address(this).balance;\n    }\n}",
  "sourcePath": "/Users/akshat/Documents/myassignment/barter_final/ank/contracts/Bank.sol",
  "compiler": {
    "name": "solc",
    "version": "0.8.15+commit.e14f2714.Emscripten.clang"
  },
  "schemaVersion": "3.4.8",
  "updatedAt": "2022-07-07T13:36:01.326Z",
  "devdoc": {
    "kind": "dev",
    "methods": {
      "balance()": {
        "returns": {
          "_0": "The balance of the user"
        }
      },
      "deposit()": {
        "returns": {
          "_0": "The balance of the user after the deposit is made"
        }
      },
      "depositsBalance()": {
        "returns": {
          "_0": "The balance of the Simple Bank contract"
        }
      },
      "enroll()": {
        "returns": {
          "_0": "The balance of the user after enrolling"
        }
      }
    },
    "version": 1
  },
  "userdoc": {
    "kind": "user",
    "methods": {
      "balance()": {
        "notice": "Just reads balance of the account requesting, so \"constant\""
      },
      "deposit()": {
        "notice": "Deposit ether into bank, requires method is \"payable\""
      },
      "enroll()": {
        "notice": "Enroll a customer with the bank,  giving the first 3 of them 10 ether as reward"
      }
    },
    "version": 1
  }
}